:020000040800F2
:1000000000000520D5240008592600085B260008BA
:100010005D2600085F260008612600080000000039
:10002000000000000000000000000000632600083F
:100030006526000800000000672600086926000801
:100040002525000825250008252500082525000868
:100050002525000825250008252500082525000858
:100060002525000825250008252500082525000848
:100070002525000825250008252500082525000838
:100080002525000825250008252500082525000828
:100090002525000825250008252500082525000818
:1000A0002525000825250008252500082525000808
:1000B00025250008252500082525000825250008F8
:1000C00025250008252500082525000825250008E8
:1000D00025250008252500082525000825250008D8
:1000E00025250008252500082525000825250008C8
:1000F00025250008252500082525000825250008B8
:1001000025250008252500082525000825250008A7
:100110002525000825250008252500082525000897
:100120002525000825250008252500082525000887
:100130002525000825250008252500082525000877
:100140002525000825250008252500082525000867
:100150002525000825250008252500082525000857
:100160002525000825250008252500082525000847
:100170002525000825250008252500080000000089
:100180002525000825250008252500082525000827
:100190002525000825250008252500082525000817
:1001A0002525000825250008252500082525000807
:1001B00025250008252500082525000825250008F7
:0801C000252500082525000893
:1001C8000348044B834202D0034B03B118477047DE
:1001D80040040020400400200000000005480649B3
:1001E8000B1AD90F01EBA301491002D0034B03B13D
:1001F8001847704740040020400400200000000019
:1002080010B5064C237843B9FFF7DAFF044B13B156
:100218000448AFF300800123237010BD4004002080
:1002280000000000C026000808B5044B1BB10449B3
:100238000448AFF30080BDE80840CFE700000000A5
:1002480044040020C0260008002301461A46184628
:1002580000F09CB838B50A4C0A4D641BA4100AD0AB
:1002680004F18043013B05EB8305013C55F8043953
:100278009847002CF9D1BDE8384002F023BA00BFF6
:10028800D0410008CC41000870B50D4E0D4D761BCD
:10029800B61006D00024013455F8043B9847A6420E
:1002A800F9D1094E094D761B02F006FAB61006D0B0
:1002B8000024013455F8043B9847A642F9D170BD93
:1002C800C4410008C4410008CC410008C4410008EA
:1002D80080EA0102844612F0030F4FD111F0030F98
:1002E80032D14DF8044D11F0040F51F8043B0BD0F6
:1002F800A3F101329A4312F0803F04BF4CF8043B4B
:1003080051F8043B16D100BF51F8044BA3F1013258
:100318009A4312F0803FA4F101320BD14CF8043B10
:10032800A24312F0803F04BF51F8043B4CF8044B41
:10033800EAD023460CF8013B13F0FF0F4FEA3323B2
:10034800F8D15DF8044B704711F0010F06D011F891
:10035800012B0CF8012B002A08BF704711F0020F7F
:10036800BFD031F8022B12F0FF0F16BF2CF8022B6A
:100378008CF8002012F47F4FB3D1704711F8012B8D
:100388000CF8012B002AF9D1704700BFF0B4184CC3
:100398002568D5F8484114B365681F2D24DC38B9A1
:1003A800AB1C0135656044F823100020F0BC704791
:1003B80004EB85060127C6F8882007FA05F2D4F869
:1003C8008871022847EA0207C4F88871C6F808311C
:1003D800E6D1D4F88C311A43C4F88C21E0E705F54E
:1003E800A674C5F84841D7E74FF0FF30DEE700BFF5
:1003F800D826000807490302CA6803F4E06322F418
:10040800E0621204120C134343F0BF6343F4003359
:10041800CB60704700ED00E0164B30B5DC68C4F3E4
:100428000224C4F10703251D042B28BF0423062D2D
:100438004FF0FF358CBF033C002405FA03F3002876
:1004480021EA030303FA04F305FA04F422EA040296
:1004580043EA02034FEA0313DBB204DA00F00F00A9
:10046800054A135430BD00F1604000F5614080F842
:100478000033F7E700ED00E014ED00E04209012346
:1004880000F01F0003FA00F0014B43F82200704708
:1004980000E100E00138B0F1807F0AD2064BF0217C
:1004A800064A5860002082F82310072298601A60D4
:1004B80070470120704700BF10E000E000ED00E049
:1004C800D201D1F800C02DE9F043843204684F68A6
:1004D8000CF10106A318E5684FF0000ED1F818904A
:1004E8005868C5F30B4500F470403D445860E06817
:1004F800C0F30B40304440EA0540CD685860E068DE
:10050800C0F30A000544986800F470409860886851
:10051800E6680130C6F30A0630440E6940EA054031
:100528009860186920F0070018611E619D6991F8AC
:10053800320091F83180C3F818E091F8305045EA5C
:10054800096545EA082545EA00459D61586920F096
:10055800FF00586148695861D86920F4E06020F0CC
:100568000700D861D1E907500543DD61986A486AF8
:10057800C3F828E098621EB3012E23D0B01E0228CB
:1005880022D9072E0CBF02200120DD6AA7EB0C0739
:1005980005F0E025DD628D6AC96A4543784303307A
:1005A80040EA0540D862186B20F4FF6020F007008D
:1005B80018631963A35843F00103A350BDE8F083FF
:1005C8000420E2E70320E0E70220DEE770470000AE
:1005D80038B50446002867D090F8A13003F0FF0230
:1005E8001BB980F8A020FFF7F1FF022384F8A1309F
:1005F80023689A6922F070429A619969D4E90120C6
:100608000243E06802432069024360690A432749BC
:100618009A619A680A409A609A6842EA0042A06918
:100628000243E0699A60DA680A40DA60DA6842EA06
:100638000042206A0243606ADA601A690A401A6155
:100648001A6942EA0042A06A02431A615A691140D3
:100658005961E16A5A6942EA0142216B0A435A61C7
:10066800D96A94F8360001F07F4194F83550D96280
:10067800D96A94F834200A4342EA052242EA004241
:100688000020DA625A6B42F004025A635A6B42F055
:1006980002025A639A6942F001029A610123C4F87E
:1006A800A40084F8A13038BD0120FCE700F800F070
:1006B8002DE9F04190F8A03006460F469446012BEC
:1006C8004FF002001FD034244FF001080D4686F881
:1006D800A10004FB026486F8A08038340FCD0FC453
:1006E8000FCD0FC40FCD0FC42B6830466246394674
:1006F8002360FFF7E5FE33680020C3F8248086F8FE
:10070800A18086F8A000BDE8F08190F8A1007047AC
:1007180010B5044601F0F0F94FF47A73B0FBF3F02A
:10072800FFF7B8FE002221464FF0FF30FFF774FEB6
:10073800002010BD074A032008B5136843F400736E
:100748001360FFF757FE0F20FFF7E2FF01F0E8FE06
:10075800002008BD003C0240024A136801331360C0
:10076800704700BF5C040020014B1868704700BF49
:100778005C04002013B50190FFF7F6FF0446FFF76D
:10078800F3FF019A031B9342F9D302B010BD70B571
:10079800049D046845EA03454368B3F5403F656432
:1007A800E26330D186681EB1012E03D121F07F416A
:1007B800A16370BD022E01F47F0301F47F45C8B226
:1007C80007D1DB0CAD0ADB0243EA451343EAD0014B
:1007D800EEE7032E01F07F420AD1DB0CED0A9B0203
:1007E800D10F43EA451343EAD00343EAC131DFE7B7
:1007F800190D2D0B0902130F41EA051141EA1011D9
:1008080041EA0331D4E7E160D3E7704710B5044605
:1008180030B390F8393003F0FF021BB980F8382064
:10082800FFF7F3FF226802236168002084F839305B
:10083800136823F440330B43A1681360536B23F010
:1008480007030B43E1685363136C23F47F5323F0CE
:100858003F030B4313640123E06384F8393010BD70
:100868000120FCE773B590F838500446012D4FF08D
:10087800020515D0012680F8395080F838600668DE
:10088800356825F001053560069D0095FFF77FFF67
:1008980022680020136843F00103136002B070BDA2
:1008A8002846FBE703681B6870B50446D8070D4661
:1008B80016D42368DB69990606D5FFF755FF064667
:1008C80023685A68D20639D52368022200209A6024
:1008D80010229A60012384F8380084F8393018E02F
:1008E800FFF742FF064623685A6812F00202E0D179
:1008F8005868596800F0200001F00101014309D04F
:100908002021012099609860042384F8382084F815
:10091800393070BD6A1CE7D055B9002384F83830E7
:10092800E36B032043F02003E36384F83900F0E726
:10093800FFF71AFF801BA842D5D9EEE75A681007BF
:1009480006D5082201209A60042384F83930E0E7AC
:10095800691CB6D0002DE3D0FFF706FF801BA84224
:10096800AED9DDE7F0B590F83830012B4FF002032F
:1009780030D0012280F83930304C036880F83820B4
:1009880051BBC7695A6AA7F10905416A1440026A4E
:10099800012D4FEA024296BF01F07F4642EA01620A
:1009A8003243012D42EA070242EA040284695A628C
:1009B8009A6922F47F5222F03F0242EA04029A61C5
:1009C80002D821F07F419962012380F83930002351
:1009D80080F838301846F0BD00EB011CDF690E01C5
:1009E800DCF81CE02740AEF10905012D1CD8DCE934
:1009F800082404F07F4444EA024444EA0E042743EE
:100A0800DF6106441A69012DB46922F47F5222F08D
:100A18003F0242EA04021A61D6D800EB01114A6A81
:100A280022F07F421A62CFE7DCE90842120642EA66
:100A3800044242EA0E021743E2E700BFF0FFFC005F
:100A4800036802461820D9B21039B1FBF0F010B58E
:100A5800054C5F29205C506523F47F7020F003006B
:100A680088BF0430106510BDDC26000838B5044680
:100A780000283BD021680223406A1D4D84F8353098
:100A880004280B6805EA0305D4E9012343EA0203B5
:100A9800E26843EA0203226943EA0203626943EA1D
:100AA8000203A26943EA0203E26943EA0203226AF3
:100AB80043EA020343EA050302BFD4E90B252A43AC
:100AC800134304280B604B6908BFA26A23F007038D
:100AD80043EA0003204608BF13434B61FFF7B0FF0A
:100AE80000200123E06484F8353038BD0120FCE79C
:100AF8003F8010F038B50546E8B190F83530022B44
:100B080019D0036800241A6822F001021A60212211
:100B18001C605C609C60DC601C615A61FFF790FFA0
:100B28006A6D3F23934083602046EC6485F8344027
:100B380085F8354038BD0120FCE7704738B50D46CB
:100B48000446C8B190F82C3003F0FF021BB980F8B6
:100B58002D20FFF7F2FF0223211D206884F82C3096
:100B680000F0E4FF62682946206801F017F80123C5
:100B7800002084F82C3038BD0120FCE738B590F807
:100B88002C3004460D46022BD8B20DD00223206823
:100B980084F82C3001F041F82B680020022B0CBFA0
:100BA8000523012384F82C3038BD10B590F82C307B
:100BB8000446022BD8B209D00223206884F82C30CE
:100BC80001F050F80123002084F82C3010BD0000FB
:100BD8002DE9F04F002385B0DFF8D881734ADFF89C
:100BE800D89101270C689F4007EA040537EA0404F6
:100BF80040F0C2804C6824F0100ABAF1020F16D1F6
:100C08004FEAD30E03F0070B4FF00F0C00EB8E0EDC
:100C18004FEA8B0BDEF820600CFA0BFC26EA0C0C72
:100C28000E6906FA0BF646EA0C06CEF820604FEA83
:100C3800430E4FF0030CD0F800B00AF1FF3A0CFA5B
:100C48000EFCBAF1010F6FEA0C062BEA0C0B04F04C
:100C5800030C01960CFA0EFC4CEA0B0CC0F800C011
:100C680015D8D0F808C006EA0C0CCE6806FA0EFAB9
:100C78004AEA0C0CC0F808C0D0F804C02CEA0707F0
:100C8800C4F3001C0CFA03FC4CEA07074760C7686A
:100C9800019E37408E6806FA0EF63E43C660E600AF
:100CA8006AD54FF0000B03F0030E4FF00F0C404EC7
:100CB800CDF80CB04FEA8E0ED8F84470B0420CFA5A
:100CC8000EFC47F48047C8F84470D8F8447007F41D
:100CD80080470397039F23F0030707F1804707F531
:100CE8009C37D7F808A02AEA0C0C4CD006F5806689
:100CF800B0424AD006F58066B04248D006F5806614
:100D0800B04246D006F58066B04244D0484544D04B
:100D180006F50066B04242D006F58066B04240D083
:100D280006F58066B0423ED006F58066B0420CBF3C
:100D380009260A2606FA0EF614F4803F46EA0C063F
:100D4800BE606FEA050716680CBF3E402E4314F4D8
:100D5800003F166056680CBF3E402E4314F4801FB7
:100D6800566096680CBF3E402E43A4029660D66833
:100D780054BF3E402E43D6600133102B7FF431AF71
:100D880005B0BDE8F08F5E46D4E70126D2E702261B
:100D9800D0E70326CEE70426CCE70526CAE70626D1
:100DA800C8E70726C6E70826C4E700BF003C01409D
:100DB8000000024000380240001402400AB181617C
:100DC80070470904FBE7000003682DE9F34713F0B7
:100DD800010604460BD0B54A916821F400019160E0
:100DE800466B91683143B6FA86F67609916013F43A
:100DF800002512D0AD49E56BD1F88C20B5F5801FE0
:100E080022F4401208BF012642EA050216BFB5FACD
:100E180085F500256D09C1F88C20D80210D5A348A6
:100E2800216CD0F88C20B1F5800F22F4400242EA00
:100E38000102C0F88C2000F01382002908BF0125A8
:100E480013F0807F18BF0126990643D50023984FD9
:100E58000193964B1A6C42F080521A641B6C03F093
:100E680080530193019B3B6843F480733B60FFF719
:100E78007BFC80463B68DA0540F1F4818B4F226B9E
:100E88003B6F534013F4407F24D03A6F3B6F22F4FA
:100E9800407143F480333B673B6F23F480333B67F7
:100EA8009307396700F1E981236B03F44072B2F5C7
:100EB800407F7E4A40F0F181916823F0704021F430
:100EC800F81120F4407001439160C3F30B03116FD4
:100ED8000B4313672368D9060CD5744AD2F88C10D3
:100EE80021F08071C2F88C10D2F88C10A06B0143ED
:100EF800C2F88C105A0408D56C49606ED1F890205D
:100F080022F440320243C1F890201F0408D56749F3
:100F1800A06ED1F8902022F440220243C1F890201C
:100F2800D80308D56149E06ED1F8902022F4401228
:100F38000243C1F89020990308D55C49206FD1F885
:100F4800902022F440020243C1F890205A0608D5A6
:100F58005649606CD1F8902022F003020243C1F890
:100F680090201F0608D55149A06CD1F8902022F096
:100F78000C020243C1F89020D80508D54B49E06C13
:100F8800D1F8902022F030020243C1F89020990550
:100F980008D54649206DD1F8902022F0C0020243BE
:100FA800C1F890205A0508D54049606DD1F89020C5
:100FB80022F440720243C1F890201F0508D53B492E
:100FC800A06DD1F8902022F440620243C1F890202D
:100FD800D80408D53549E06DD1F8902022F4405264
:100FE8000243C1F89020990408D53049206ED1F801
:100FF800902022F440420243C1F890205A0208D5BA
:101008002A49A06FD1F8902022F080620243C1F8EB
:1010180090209F020CD52548E16FD0F89020B1F1BF
:10102800006F22F0006208BF01250A43C0F8902033
:1010380013F0080F18BF0125580308D51B49606F26
:10104800D1F8902022F040720243C1F89020190292
:1010580009D51649D4F88000D1F8902022F08052A2
:101068000243C1F89020012E00F01E81B3F1007FE9
:1010780000F01A81012D40F0F1800C4E336835469E
:1010880023F080533360FFF76FFB074633689B00FC
:1010980000F1298221680F0301D5E36B53B1CE0219
:1010A8004CD5236C002B49D104E000BF0038024026
:1010B80000700040D5F888004FF4403C9CFAACFE24
:1010C8004FF0E046BEFA8EFED5F8882096FAA6F7CD
:1010D80047F6C073B7FA87F793FAA3F3B3FA83F91D
:1010E8009CFAACFC4FF07068BCFA8CFC98FAA8F833
:1010F800B8FA88F896FAA6F6636900F4403002F068
:10110800E042B6FA86F603FA09F9A36920FA0EF066
:10111800FA4003FA08F800FA0CF0B24049EA08036A
:1011280003431343C5F88830D5F88C30A26A23F4FA
:10113800F853013A43EA0223C5F88C3088023ED5B9
:10114800E36FB3F1006F3AD1564D4FF0706CD5F89C
:1011580088009CFAACFE4FF0E046BEFA8EFED5F849
:10116800882096FAA6F747F6C073B7FA87F793FA76
:10117800A3F34FF44038B3FA83F998FAA8F8B8FA09
:1011880088F89CFAACFCBCFA8CFC96FAA6F6636963
:1011980000F0706002F0E042B6FA86F603FA09F948
:1011A800236A20FA0EF0FA4003FA08F800FA0CF065
:1011B800B24049EA080303431343C5F888300A07D5
:1011C80040D538484FF07065D0F8882095FAA5F6D4
:1011D8004FF4403CB6FA86F6D0F888109CFAACF882
:1011E80047F6C073B8FA88F893FAA3F3B3FA83F70B
:1011F8009CFAACFCBCFA8CFC95FAA5F54FF0E04ED5
:10120800B5FA85F59EFAAEFE6369BEFA8EFE01F464
:10121800403102F07062BB40E76921FA08F1F24000
:1012280007FA0EF701FA0CF1AA403B430B431343AC
:10123800C0F88830D0F88C30E26A23F44033134386
:10124800C0F88C30174C236843F080532360FFF7B5
:101258008BFA054623689B0040F14C81002009E089
:101268000126EDE5FFF780FAA0EB080064287FF679
:1012780001AE032002B0BDE8F087FFF775FA41F22E
:10128800883980463B6F98073FF50EAEFFF76CFA3A
:10129800A0EB08004845F5D9EBE7916821F4F8116F
:1012A80012E600BF00380240964E336823F0806390
:1012B8003360FFF759FA074633681A0100F10C81C9
:1012C8002268D3073CD5636BD3BBD6F884004FF4B0
:1012D800403E9EFAAEF84FF07067B8FA88F8D6F834
:1012E800841097FAA7FC47F6C073BCFA8CFC93FAF3
:1012F800A3F3B3FA83FA9EFAAEFEBEFA8EFE97FA0D
:10130800A7F74FF0E049B7FA87F799FAA9F96368A0
:10131800B9FA89F900F4403001F0706103FA0AFA69
:10132800A36820FA08F021FA0CF103FA09F900FA87
:101338000EF0B9404AEA090303430B43C6F8843068
:10134800170303D5E36BB3F5801F05D0D60248D544
:10135800236CB3F5800F44D16A4E4FF4403ED6F863
:1013680084009EFAAEF84FF0E047B8FA88F8D6F84D
:10137800841097FAA7FC47F6C073BCFA8CFC93FA62
:10138800A3F3B3FA83FA9EFAAEFE4FF07069BEFA81
:101398008EFE99FAA9F9B9FA89F997FAA7F7636855
:1013A80000F4403001F0E041B7FA87F703FA0AFA8F
:1013B800E36820FA08F021FA0CF103FA09F900FAB7
:1013C8000EF0B9404AEA090303430B43C6F88430D8
:1013D800D6F88C10636A21F01F01013B0B43C6F855
:1013E8008C30D0013BD5474E4FF0706ED6F8840054
:1013F8009EFAAEF84FF0E047B8FA88F8D6F88410AD
:1014080097FAA7FC47F6C073BCFA8CFC93FAA3F3CF
:101418004FF44039B3FA83FA99FAA9F9B9FA89F974
:101428009EFAAEFEBEFA8EFE97FAA7F7636800F042
:10143800706001F0E041B7FA87F703FA0AFA236906
:1014480020FA08F021FA0CF103FA09F900FA0EF073
:10145800B9404AEA090303430B43C6F884309101B3
:1014680028D547F6C07393FAA3F34FF44030B3FA84
:1014780083F690FAA0F04FF07061B0FA80F091FA1C
:10148800A1F14FF0E042B1FA81F192FAA2F2636859
:10149800B2FA82F2B340266906FA00F00343E06824
:1014A80000FA01F10B43A16801FA02F21343154A4D
:1014B800C2F88430134E336843F080633360FFF71B
:1014C80053F9074633681A013FF5D4ADFFF74CF9D5
:1014D800C01B6428F6D9CCE6FFF746F9C01B642880
:1014E8007FF6EAAEC5E6FFF73FF9C01B64287FF632
:1014F800CDADBEE6FFF738F9401B64287FF6AAAEEB
:10150800B7E600BF003802400368F7B5DE070546B6
:1015180058D42B689C0700F1C7802B681A0700F184
:1015280016812B685B0747D50023A54C0193A54B73
:101538001A6C42F080521A641B6C03F080530193BA
:10154800019B236843F480732360FFF70DF9064677
:101558002368D90540F120819A4C41F28837236FDE
:1015680023F001032367236F23F004032367236F0A
:1015780023F001032367FFF7F7F80646236F9A075E
:1015880000F11181236F23F001032367AB68012B5E
:1015980040F01081236F23F004032367236F43F087
:1015A80001032367FFF7E0F8864E044641F28837C7
:1015B800336F9B0740F12381AA69002A40F02681F6
:1015C800002015E07F4B9A6802F00C02042A07D02D
:1015D8009A6802F00C02082A0CD15A68500209D500
:1015E800784B1B68990394D56B68002B91D1012027
:1015F80003B0F0BD1A68734C22F480321A601A687E
:1016080022F480221A601A6822F480321A60FFF7E6
:10161800ABF8064623689A031ED4236823F4803364
:1016280023606B68B3F5803F1ED1236823F48023C1
:101638002360236843F480332360FFF795F8614EF5
:10164800044633689B033FF564AFFFF78DF8001B32
:10165800B0F5FA7FF5D905E0FFF786F8801BB0F5FD
:10166800FA7FD7D90320C3E7B3F5A02F03D12368A6
:1016780043F48023DCE7226822F480222260226877
:1016880022F480322260002BD7D1FFF76DF84D4E3F
:10169800044633689F037FF53CAFFFF765F8001BEE
:1016A800B0F5FA7FF5D9DDE7464B9A6812F00C0FD2
:1016B80007D09A6802F00C02082A16D15A68560216
:1016C80013D4404B1A68940702D5EA68012A8ED1D0
:1016D8001868F82292FAA2F2B2FA82F12A698A40CC
:1016E80020F0F8010A431A6017E7EA68EAB11A68B5
:1016F800344C42F001021A60FFF736F806462368B8
:1017080098070CD52168F82393FAA3F3B3FA83F268
:101718002B69934021F0F80213432360FDE6FFF79D
:1017280023F8801B6428EAD99CE71A68254E22F022
:1017380001021A60FFF718F80446336899077FF525
:10174800ECAEFFF711F8001B6428F6D98AE76B693D
:101758001C4C83B1636F43F001036367FFF704F820
:101768000646636F9F073FF5DCAEFEF7FDFF801B63
:101778006428F6D976E7636F23F001036367FEF701
:10178800F3FF0646636F98077FF5CBAEFEF7ECFFD5
:10179800801B6428F6D965E7FEF7E6FF801B6428FE
:1017A8007FF6D6AE5EE7FEF7DFFF801BB8427FF616
:1017B800E5AE57E7052B07D1236F43F00403ECE6AA
:1017C8000070004000380240226F22F004022267B5
:1017D800226F22F001022267002B7FF4E3AEFEF7AE
:1017E800C3FF394E044641F28837336F98077FF5B7
:1017F800E3AEFEF7B9FF001BB842F6D932E7FEF7B1
:10180800B3FF001BB8427FF6D3AE2BE72E4CA3687C
:1018180003F00C03082B3FF4EAAE2368022A23F0F6
:101828008073236042D1FEF79FFF06462368990123
:1018380036D447F6C07090FAA0F04FF44032B0FAB0
:1018480080F092FAA2F2B2FA82F14FF0706292FA44
:10185800A2F2D5E90763B2FA82F23343EE6A06FAD6
:1018680002F213436A6A02FA00F0AA6A164D520895
:101878000343013A8A40134343F0005363602368EB
:1018880043F080732360FEF76FFF04462B689A01CC
:101898003FF596AEFEF768FF001B6428F6D9E1E62F
:1018A800FEF762FF801B6428C0D9DBE6FEF75CFF09
:1018B800054623689B017FF583AEFEF755FF401B65
:1018C8006428F6D9CEE600BF003802406B4A136898
:1018D80003F00F038B422DE9F04104460D466CD20C
:1018E800136823F00F030B431360136803F00F030F
:1018F8008B4202D00120BDE8F0810268960706D528
:101908005F4980688B6823F0F00303438B60D50739
:1019180012D42268500700F1A980130707D5584A46
:101928002169936823F4604343EAC10393600F205D
:10193800FEF7EEFE0020DEE76168514B01291A68C8
:101948001CD112F4003FD5D09A6841F288374C4E2A
:1019580022F003020A439A60FEF706FF6368054611
:10196800012B13D1B36803F00C03042BD1D0FEF77D
:10197800FBFE401BB842F5D90320BCE7022902D17F
:1019880012F0007FDFE712F0020FDCE7022B0FD125
:10199800B36803F00C03082BBBD0FEF7E5FE401B31
:1019A800B842F5D9E8E7FEF7DFFE401BB842E3D8B6
:1019B800B36813F00C0FF6D1ABE70268910706D5B0
:1019C8002F4980688B6823F0F00303438B60D207AC
:1019D8000BD42A4A136823F00F032B4313601368B0
:1019E80003F00F03AB4285D193E76168244B0129CB
:1019F8001A681CD112F4003F3FF47CAF9A6841F298
:101A080088381F4F22F003020A439A60FEF7ACFEA3
:101A180063680646012B12D1BB6803F00C03042B44
:101A2800D7D0FEF7A1FE801B4045F5D9A4E70229CF
:101A380002D112F0007FDFE712F0020FDCE7022B81
:101A48000FD1BB6803F00C03082BC2D0FEF78CFE45
:101A5800801B4045F5D98FE7FEF786FE801B404581
:101A68008AD8BB6813F00C0FF6D1B2E70449E068D6
:101A78008B6823F4E05303438B604EE7003C02403D
:101A880000380240194A936803F00C03042B10B580
:101A980028D0082B28D1516847F6C074536801F044
:101AA8003F0113F4800F536894FAA4F0B0FA80F061
:101AB80003EA04034FF4403223FA00F314BF0C483E
:101AC8000C48B0FBF1F05843084B5B6892FAA2F25D
:101AD800B2FA82F203F44033D34001335B00B0FB27
:101AE800F3F010BD0248FCE70248FAE7003802406C
:101AF80040787D010024F40008B5FFF7C3FF084BC8
:101B0800F0229B6892FAA2F2B2FA82F203F0F00392
:101B1800D340044AD35CD840034B186008BD00BFCB
:101B280000380240E42600083C0400202DE9F0417A
:101B380088464A6AD1E90743D8E90576D8F800808B
:101B480023430468B8F1010FDFF84C80D1E9015E46
:101B580004EA0804D1E903C10DD01A432A4342EA32
:101B68000E0343EA0C030B433B4333432343036015
:101B78000020BDE8F081134345EA0E0242EA0C0258
:101B8800234344680A43036004EA08043A4332439F
:101B980022434260ECE700BF0080FFFF0B68012A88
:101BA800F0B503F1FF374B680E6903F1FF3C8B6812
:101BB8008D6906F1FF36CC6803F1FF33496905F1F9
:101BC800FF354FEA032304F1FF3401F1FF314FEAF7
:101BD80006464FEA05654FEA04344FEA015143EAE5
:101BE8000C130BD03B438268334302F070422B4303
:101BF80023430B43134383600020F0BD3B43C2687B
:101C08000C43334302F070422B431343826802F0C3
:101C18007042C36014438460EEE7002373B5154631
:101C280001930446D1E900321343CA6843EA4223C8
:101C38008A68013A43EA42130193019B0361FEF764
:101C480093FD0646A06910F0200003D06B1CF9D064
:101C580015B9032002B070BDFEF786FD801BA842AF
:101C6800F0D9F6E7436943EA41034361002070472E
:101C78002DE9F3471A4C98464FF440330E46174661
:101C8800342163608146174B2046174A1B68DDF8EC
:101C98002CA001FB03239D6C0A9B022DE36018BF57
:101CA8000025124BA5602360FEF7B0FDA0B9494698
:101CB8002046FEF757FE78B93B4632465146204645
:101CC800CDF80080FEF7CEFD30B90A21204602B0DB
:101CD800BDE8F047FEF7E6BD02B0BDE8F08700BFFB
:101CE8007C04002060040020BC04002000B00240F6
:101CF800194A002330B512680446342517488FB0B6
:101D080005FB02020A91FF21156E526E0193ADF890
:101D180034308DF83630CDE90423CDE90613CDE90A
:101D280002534FF4C0610723CDE90B52CDE90813E4
:101D3800224601A9FEF7BCFC0C23094A4FF0FF31EB
:101D480003FB04F013185960064999604FF07F436C
:101D580013500FB030BD00BF60040020BC04002049
:101D68006404002030040020014B1860704700BF55
:101D780060040020084BC00101291A6802F184039D
:101D8800C1580CBF41F0010121F00101C150536A53
:101D980043F0010353627047BC040020034B1A68E8
:101DA8000C235343024AD050704700BF6004002000
:101DB80064040020034B0C21034A1B6801FB032326
:101DC80058607047600400206404002007B5094A81
:101DD800034634211068084A0193002301FB0021BF
:101DE8000093D1E91823C96DFFF742FF03B05DF8EE
:101DF80004FB00BF60040020BC0400200A4B30B57F
:101E08001B683425094C05FB0343D3E917459B6C34
:101E180005FB0101022B03D192B224F8112030BD39
:101E280044F82120FBE700BF60040020BC04002028
:101E38002DE9F04F2E4B85B0A2F120054FF0000898
:101E4800D3F800A0CDE901012A480C2101FB0A01C1
:101E58008968B1F80490CB8809F107060A685D43E0
:101E6800F6100093C9EBC60006FB052509F1FF3201
:101E780052FA80F30393029B03EB0801009B9845F9
:101E88001FFA81FB02D305B0BDE8F08F012E2C7834
:101E980004D0022E09D12C8864BAA4B20027B9450F
:101EA8000AD808F101083544E5E76A78240444EAC9
:101EB8000224AA781443F1E7019B01225946D81954
:101EC800039BA3EB070C80B2013702FA0CF2224203
:101ED8004FF00C020DBF074B02FB0AF2054B02FB49
:101EE8000A3214BF9A585268FFF788FFD7E700BF35
:101EF80060040020640400202DE9F0470546884668
:101F08001646144612F8011B0029FAD1254A012B5E
:101F1800254811684FF00C0202FB01024FF0340013
:101F28009768224AB7F804C000FB0120006EB0FB96
:101F3800FCF021D0022B27D02BB24FF034094FF000
:101F4800000A002B09FB0129D8BF0125B8881FFA10
:101F58008AF3D9F8601016F80A200AF1010A00FB82
:101F680013139BB2834234BF00230123002A08BF06
:101F780000237BB9BDE8F087341B04440CFB04F450
:101F880005EB540085B2D7E7341B044414FB0CF46A
:101F9800601BF7E728464146FFF74AFFB888284400
:101FA80085B2D3E76004002064040020BC0400204C
:101FB800084B0A4608491B6810B40C2404FB031399
:101FC80010BC9B68DB8813FB00F0032381B2002060
:101FD800FFF792BF600400206404002008B5094B95
:101FE8004FF4805108481A68936943F001039361DC
:101FF8000122FEF7E3FE012208210448BDE808405B
:10200800FEF7DCBEBC04002000200240002802408D
:10201800F0B54F4B8FB0002202240E254D48009298
:102028004FF48057596C4C4E41F080615964596C9B
:1020380001F08061009100990192196B41F400014F
:102048001963196B01F40001019101990292196B4E
:1020580041F010011963196B01F010010291029906
:102068000392196B41F040011963196B01F04001AB
:10207800039103990492196B41F480711963196BE8
:1020880001F48071049104990592196B41F400716F
:102098001963196B01F40071059105990692196B82
:1020A80041F480611963196B01F480610691069906
:1020B8000792196B41F480711963196B01F48071EF
:1020C800079107990892196B41F48061196309A96E
:1020D8001B6B0D9503F480630893089B1023CDE9CF
:1020E8000B24CDE90934FEF773FD092309A91B4820
:1020F8000D93CDE90974FEF76BFD4FF4674309A909
:1021080030460D95CDE90934FEF762FD4EF6FF73B2
:1021180009A913480D95CDE90934FEF759FDF723B0
:1021280009A90D950125CDE909340E4C2046FEF785
:102138004FFD09A9304609970A95FEF749FD08237E
:1021480009A92046CDE90935FEF742FD0FB0F0BDDB
:1021580000380240001002400020024000180240EF
:102168000024024000280240054808230360C023D9
:1021780043610523C3614FF48033C362FEF724BE75
:102188006405002010B52822244C0923352140F28B
:102198001B1040F21D1CC4E905230B23C4E90713D7
:1021A80040F215230021C4E9093040F235232046C6
:1021B800C4E90B3CFFF7D8FF4FF4F07E4FF4887367
:1021C8002046C4E918E30023A38684F83630C4E91E
:1021D8000133C4E90333124B2360FEF796FA014634
:1021E80010B92046FFF714FF0C48FEF7F1F9012259
:1021F8004FF480510B48FEF7E1FD012208210A48FF
:10220800FEF7DCFD00F026F9084B094A0C211B6893
:10221800002001FB0323074A9A6010BDBC0400207C
:1022280000680140002002400028024060040020AD
:1022380064040020300400202DE9F743214C0126D6
:10224800214D4FF000081027214681464FF6FF72B6
:102258002846CDF80480C4E90067C4E90268FEF79F
:102268008DFC3046FEF786FA022321464FF6FF72B0
:102278002846C4E90037C4E90268FEF77FFC032357
:1022880021464FF6FF722846C4E900370823C4E9FF
:102298000238FEF773FC4FF4087321464FF6FF72BD
:1022A800019304232846A660C4E90037019BE36034
:1022B800FEF764FC4946284603B0BDE8F043FEF744
:1022C80074BC00BFE80500206C06002070B5584BB0
:1022D8008EB00025064609A9564801959A6B564CBA
:1022E80042F001029A639A6B02F001020192019A8C
:1022F80002951A6B42F480021A631A6B02F4800288
:102308000292029A03951A6B42F004021A631A6B3E
:1023180002F004020392039A04951A6B42F0080231
:102328001A631A6B02F008020492049A05951A6B54
:1023380042F010021A631A6B02F010020592059A15
:1023480006951A6B42F020021A631A6B02F02002FB
:102358000692069A07951A6B42F040021A631A6BA6
:1023680002F040020792079A08951A6B42F0800221
:102378001A6301221B6B03F080030893089B022356
:10238800CDE90A320C930C230D9308230993FEF729
:102398001FFC4CF20B7309A928480993FEF718FC97
:1023A8004FF6837309A926480993FEF711FC4FF6E7
:1023B8003F0309A923480993FEF70AFC48F233139F
:1023C80009A921480993FEF703FC282309A91F48F6
:1023D8000993FEF7FDFB80214FF400734FF48060F2
:1023E800256334636560A663C4E902134FF4805320
:1023F800C4E904034FF480432046C4E906354FF48A
:102408000033C4E908350323C4E90A35104B2360B7
:10241800FEF770FB2046FEF729FB2A4605213820E7
:10242800FDF7FAFF3820FEF729F80EB070BD00BF9F
:10243800003802400008024014060020000C024048
:10244800001002400014024000180240001C024024
:102458001064024038B5194C0721194B0422194D54
:102468004FF4006023600223E260AB61C5E90031EC
:10247800C5E90221C5E90433102240230021C4E93B
:1024880004234FF48073A162C4E906314FF48053EA
:10249800C4E908032046C4E90111FFF717FF2946DC
:1024A8002046094CFEF74AFB003818BF012020706F
:1024B80040F20360FFF7C0FE207838BD6C060020AC
:1024C800400100A0F805002038040020DFF834D0CF
:1024D800002103E00C4B5B58435004310B480C4B74
:1024E80042189A42F6D30B4A02E0002342F8043B12
:1024F800094B9A42F9D300F0B5F8FDF7C5FE00F094
:1025080021F8704700000520D04100080000002095
:102518004004002040040020A0060020FEE7000040
:102528007FB50222012301A90548CDE90123002333
:10253800CDE90333FEF74CFB07B05DF804FB00BFA1
:102548000020024080B592B0BFF34F8FBFF36F8F6A
:102558003D4B0021C3F850125A6942F400325A61C7
:10256800BFF34F8FBFF36F8FC3F88410BFF34F8F44
:10257800D3F8802043F6E070C2F3C901C2F34E32AB
:10258800520102EA00060C4646EA8475013CC3F88B
:102598006052F9D2203A12F1200FF2D1BFF34F8FD7
:1025A8005A6942F480325A61BFF34F8FBFF36F8F7D
:1025B800FEF7C0F801254FF48033022619220027C0
:1025C80006A810960997CDE906534FF48003CDE984
:1025D8000C634FF4D873CDE90E2309231193FEF74A
:1025E80093FF0F234FF4A05101A80397CDE90136BB
:1025F8004FF48053CDE904130721FFF767F9FFF77C
:10260800C1FD4FF040412846FFF772FB2946284696
:10261800FFF7B0FB2846FFF7A7FB4FF07F40FFF717
:10262800D5FB4FF07F40FFF7C5FB2046074CFFF76F
:10263800B5FBFFF7D3FC214606A8FDF749FE06A91E
:102648000020FFF7B5FCF6E700ED00E0AC4100081C
:102658007047FEE7FEE7FEE7FEE770477047704702
:10266800FEF77AB80C4B00211A6842F001021A6092
:1026780099601A6822F0847222F480321A60074A3C
:102688005A601A6822F480221A604FF00062D960FA
:10269800034B9A60704700BF003802401030002496
:1026A80000ED00E0024B13B10248FDF7CDBD7047C5
:1026B800000000005D020008F8B500BFF8BC08BCC7
:1026C8009E467047F8B500BFF8BC08BC9E467047E8
:1026D8000800002000061016000610160000000072
:1026E80001020304010203040607080900000000B0
:1026F80000000000000000000000000000000000D2
:1027080000000000000000000000000000000000C1
:1027180000000000000000000000000000000000B1
:1027280000000000000000000000000000000000A1
:10273800000000000000000000000380000380008B
:1027480003800003800003800003800003800003EF
:10275800800003800001000001000000000000006C
:10276800000380000380000000000000000000005B
:102778000000000000000000000000000000000051
:1027880000000000000E70000E70000E70000420A3
:1027980000042000042000042000000000000000C5
:1027A8000000000000000000000000000000000021
:1027B8000000000000000000000000000000000011
:1027C8000000000000000000000006600006600035
:1027D8000660000660000660003FF8003FF800064B
:1027E80060000CC0003FF8003FF8000CC0000CC0AF
:1027F800000CC0000CC0000CC0000000000000006D
:1028080000000000000000000000000000000001BF
:10281800800001800007B0000FF0001870001870E9
:10282800001C00000F800007E00000F000183000D6
:102838001C30001C70001FE0001BC000018000015C
:1028480080000180000180000000000000000000FE
:10285800000000000000000000000780000FC0001A
:102868001CE0001860001860001CE0000FF800076A
:10287800E0001FF0000738000618000618000738A7
:102888000003F00001E0000000000000000000006C
:102898000000000000000000000000000000000030
:1028A800000000000000000003F00007F0000C60CA
:1028B800000C00000C00000600000700000F9C0040
:1028C8001DFC0018F0001870000FFC0007DC000069
:1028D80000000000000000000000000000000000F0
:1028E800000000000000000000000000000380005D
:1028F80003800003800001000001000001000001C6
:1029080000000000000000000000000000000000BF
:1029180000000000000000000000000000000000AF
:10292800000000000000000000000000000000009F
:10293800000000180000380000700000F00000E0FF
:102948000000E00001C00001C00001C00001C0009B
:1029580001C00001C00000E00000E00000700000BD
:10296800700000380000180000000000000000009F
:10297800000000000000000000001800001C00001B
:102988000E00000E0000070000070000038000038F
:10299800800003800003800003800003800007009C
:1029A800000700000F00000E00001C0000180000C7
:1029B800000000000000000000000000000000000F
:1029C80000000180000180000180001DB8001FF890
:1029D8000007E00003C00003C000066000066000B6
:1029E80000000000000000000000000000000000DF
:1029F80000000000000000000000000000000000CF
:102A080000000000000000000000000000000000BE
:102A18000180000180000180000180000180003FEA
:102A2800FC003FFC00018000018000018000018063
:102A3800000180000000000000000000000000000D
:102A4800000000000000000000000000000000007E
:102A5800000000000000000000000000000000006E
:102A6800000000000000000000000000000000005E
:102A780000000000000000E00000C00001C00001EC
:102A88008000018000030000030000000000000037
:102A9800000000000000000000000000000000002E
:102AA8000000000000000000000000000000001FFF
:102AB800F8001FF8000000000000000000000000FF
:102AC80000000000000000000000000000000000FE
:102AD80000000000000000000000000000000000EE
:102AE80000000000000000000000000000000000DE
:102AF80000000000000000000000000000000000CE
:102B080000000000000003C00003C00003C0000074
:102B180000000000000000000000000000000000AD
:102B28000000000000180000180000380000300005
:102B380000700000600000600000C00000C00001DC
:102B4800800001800003000003000006000006006A
:102B5800000E00000C00001C000018000018000007
:102B6800000000000000000000000000000000005D
:102B7800000003C00007E0000C30000C30001818FB
:102B8800001818001818001818001818001818004D
:102B98001818000C30000C300007E00003C00000DB
:102BA800000000000000000000000000000000001D
:102BB8000000000000000000000000800007800006
:102BC8001F80001D8000018000018000018000013D
:102BD80080000180000180000180000180000180E8
:102BE800001FF8001FF800000000000000000000AF
:102BF80000000000000000000000000000000000CD
:102C0800000007C0001FF0003830003018003018EE
:102C18000000180000300000600001C000038000C0
:102C28000600000C00001800003FF8003FF8000004
:102C3800000000000000000000000000000000008C
:102C48000000000000000000000003C0000FE000CA
:102C58000C700000300000300000600003C000036A
:102C6800E000007000001800001800001800183874
:102C7800001FF0000FC0000000000000000000006E
:102C8800000000000000000000000000000000003C
:102C9800000000E00001E00001E0000360000660C1
:102CA800000660000C60000C6000186000306000D6
:102CB8003FF8003FF80000600003F80003F8000048
:102CC80000000000000000000000000000000000FC
:102CD800000000000000000000001FF0001FF000CE
:102CE8001800001800001800001BC0001FF0001C8E
:102CF80030000018000018000018000018003030DC
:102D0800003FF0000FC000000000000000000000BD
:102D180000000000000000000000000000000000AB
:102D2800000000F80003F8000700000E00000C0087
:102D3800001800001BC0001FF0001C30001818000D
:102D48001818001818000C38000FF00003E00000F5
:102D5800000000000000000000000000000000006B
:102D6800000000000000000000001FF8001FF8002D
:102D780018180018380000300000300000700000FB
:102D8800600000600000E00000C00000C00001C05A
:102D98000001800001800000000000000000000029
:102DA800000000000000000000000000000000001B
:102DB800000007E0000FF0001C3800181800181871
:102DC800000C300007E00007E0000C300018180085
:102DD8001818001818001C38000FF00007E0000051
:102DE80000000000000000000000000000000000DB
:102DF8000000000000000000000007C0000FF00005
:102E08001C30001818001818001818000C38000F8B
:102E1800F80003D80000180000300000700000E03F
:102E2800001FC0001F00000000000000000000009C
:102E3800000000000000000000000000000000008A
:102E4800000000000000000000000000000003C0B7
:102E58000003C00003C000000000000000000000E4
:102E680000000000000003C00003C00003C0000011
:102E7800000000000000000000000000000000004A
:102E8800000000000000000000000000000000003A
:102E980000000000000000F00000F00000F000005A
:102EA800000000000000000000000000E00001C079
:102EB8000001800001800003000002000000000003
:102EC80000000000000000000000000000000000FA
:102ED8000000000000000000001C00003C0000F0A2
:102EE8000003C0000F00003C0000F000003C0000A0
:102EF8000F000003C00000F000003C00001C0000B0
:102F080000000000000000000000000000000000B9
:102F180000000000000000000000000000000000A9
:102F28000000000000000000007FFC007FFC0000A3
:102F380000000000007FFC007FFC00000000000093
:102F48000000000000000000000000000000000079
:102F58000000000000000000000000000000000069
:102F680000000000000000007000007800001E0053
:102F78000007800001E000007800001E00007800D3
:102F880001E0000780001E000078000070000000CB
:102F98000000000000000000000000000000000029
:102FA8000000000000000000000000000007C00052
:102FB8000FE0001870001830001830000070000092
:102FC800E00003C0000380000300000000000000D0
:102FD80000070000070000000000000000000000DB
:102FE80000000000000000000000000000000000D9
:102FF800000003E00007F0000E38000C18001878F5
:103008000018F80019D800199800199800199800A4
:1030180018F8001878001800000C00000E180007B7
:10302800F80003E0000000000000000000000000BD
:10303800000000000000000000000000001F8000E9
:103048001FC00001C00003600003600006300006D6
:1030580030000C30000FF8001FF800180C00300C7E
:1030680000FC7F00FC7F0000000000000000000062
:103078000000000000000000000000000000000048
:1030880000000000007FE0007FF0001838001818EA
:10309800001818001838001FF0001FF800181C004E
:1030A800180C00180C00180C007FF8007FF00000C6
:1030B8000000000000000000000000000000000008
:1030C8000000000000000000000000000003EC0009
:1030D8000FFC001C1C00180C00300C0030000030E5
:1030E8000000300000300000300000180C001C1CEC
:1030F800000FF80003F000000000000000000000CE
:1031080000000000000000000000000000000000B7
:1031180000000000007FC0007FF000183800181879
:1031280000180C00180C00180C00180C00180C00E3
:10313800180C001818001838007FF0007FE0000015
:103148000000000000000000000000000000000077
:10315800000000000000000000000000007FF800F0
:103168007FF8001818001818001998001980001F17
:1031780080001F800019800019980018180018187E
:10318800007FF8007FF80000000000000000000049
:103198000000000000000000000000000000000027
:1031A80000000000003FFC003FFC000C0C000C0C71
:1031B800000CCC000CC0000FC0000FC0000CC000F9
:1031C8000CC0000C00000C00003FC0003FC0000015
:1031D80000000000000000000000000000000000E7
:1031E8000000000000000000000000000003EC00E8
:1031F8000FFC001C1C00180C00300C0030000030C4
:10320800000030FE0030FE00300C00380C001C1CA2
:10321800000FFC0003F000000000000000000000A8
:103228000000000000000000000000000000000096
:1032380000000000007E7E007E7E0018180018182E
:10324800001818001818001FF8001FF800181800B8
:103258001818001818001818007E7E007E7E0000DE
:103268000000000000000000000000000000000056
:10327800000000000000000000000000001FF8002F
:103288001FF800018000018000018000018000011A
:103298008000018000018000018000018000018021
:1032A800001FF8001FF800000000000000000000E8
:1032B8000000000000000000000000000000000006
:1032C800000000000007FE0007FE0000300000308C
:1032D8000000300000300000300030300030300096
:1032E8003030003030003060003FE0000F800000D8
:1032F80000000000000000000000000000000000C6
:10330800000000000000000000000000007F3E00F8
:103318007F3E0018300018600018C0001980001B9C
:1033280080001FC0001CE00018700018300018381A
:10333800007F1F007F1F0000000000000000000049
:103348000000000000000000000000000000000075
:1033580000000000007F80007F80000C00000C004F
:10336800000C00000C00000C00000C00000C0C000D
:103378000C0C000C0C000C0C007FFC007FFC000007
:103388000000000000000000000000000000000035
:1033980000000000000000000000000000F00F0026
:1033A800F81F00381C003C3C003C3C00366C0036E2
:1033B8006C0033CC0033CC00318C00300C00300C66
:1033C80000FE7F00FE7F00000000000000000000FB
:1033D80000000000000000000000000000000000E5
:1033E800000000000078FE0078FE001C18001E187F
:1033F800001F18001B18001B980019D80018D800C7
:1034080018F8001878001838007F18007F18000096
:1034180000000000000000000000000000000000A4
:103428000000000000000000000000000003C000D1
:103438000FF0001C3800181800381C00300C003041
:103448000C00300C00300C00381C001818001C3818
:10345800000FF00003C000000000000000000000A2
:103468000000000000000000000000000000000054
:1034780000000000003FF0003FF8000C1C000C0C9E
:10348800000C0C000C0C000C18000FF8000FE000EA
:103498000C00000C00000C00003FC0003FC0000002
:1034A8000000000000000000000000000000000014
:1034B8000000000000000000000000000003C00041
:1034C8000FF0001C3800181800381C00300C0030B1
:1034D8000C00300C00300C00381C001818001C3888
:1034E800000FF00007C00007CC000FFC000C3800EC
:1034F80000000000000000000000000000000000C4
:1035080000000000007FE0007FF000183800181865
:10351800001818001838001FF0001FC00018E0003D
:103528001870001830001838007F1E007F0E000049
:103538000000000000000000000000000000000083
:103548000000000000000000000000000007D80094
:103558000FF8001C38001818001818001E00000F7B
:10356800C00003F0000078001818001818001C3874
:10357800001FF0001BE00000000000000000000039
:103588000000000000000000000000000000000033
:1035980000000000003FFC003FFC00318C00318C33
:1035A80000318C00318C0001800001800001800016
:1035B8000180000180000180000FF0000FF0000082
:1035C80000000000000000000000000000000000F3
:1035D800000000000000000000000000007E7E00E7
:1035E8007E7E0018180018180018180018180018FF
:1035F80018001818001818001818001818000C30AF
:10360800000FF00003C000000000000000000000F0
:1036180000000000000000000000000000000000A2
:1036280000000000007F7F007F7F00180C000C184E
:10363800000C18000C18000630000630000360006B
:1036480003600003600001C00001C00000800000AA
:103658000000000000000000000000000000000062
:1036680000000000000000000000000000FE3F8095
:10367800FE3F8030060030060030860019CC001965
:10368800CC001B6C001B6C001E7C000E38000E3832
:10369800000C18000C1800000000000000000000DA
:1036A8000000000000000000000000000000000012
:1036B80000000000007E7E007E7E001818000C309E
:1036C8000006600003C00001800001800003C00004
:1036D8000660000C30001818007E7E007E7E000018
:1036E80000000000000000000000000000000000D2
:1036F800000000000000000000000000007C7E00C8
:103708007C7E001818000C3000066000066000037C
:10371800C00001800001800001800001800001805C
:10372800000FF0000FF00000000000000000000093
:103738000000000000000000000000000000000081
:1037480000000000001FF8001FF8001818001830CB
:103758000018600018C0000180000300000618006F
:103768000C18001818003018003FF8003FF8000047
:103778000000000000000000000000000000000041
:103788000000000000000000000001F00001F0004F
:10379800018000018000018000018000018000019B
:1037A800800001800001800001800001800001800C
:1037B8000001800001800001800001F00001F0009C
:1037C80000000000000000000000000018000018C1
:1037D80000001C00000C00000E000006000006009F
:1037E8000003000003000001800001800000C00009
:1037F80000C00000600000600000700000300000A1
:103808003800001800001800000000000000000048
:10381800000000000000000000000F80000F800082
:10382800018000018000018000018000018000010A
:10383800800001800001800001800001800001807B
:10384800000180000180000180000F80000F8000CF
:103858000000000000000000000000000000000060
:10386800800001C00003E0000770000630000C185B
:1038780000180C0010040000000000000000000008
:103888000000000000000000000000000000000030
:103898000000000000000000000000000000000020
:1038A8000000000000000000000000000000000010
:1038B8000000000000000000000000000000000000
:1038C80000000000000000000000000000000000F0
:1038D80000000000000000000000000000000000E0
:1038E800000000000000FFFF00FFFF0000000003D1
:1038F800000003800000E0000060000000000000FD
:1039080000000000000000000000000000000000AF
:10391800000000000000000000000000000000009F
:10392800000000000000000000000000000000008F
:10393800000000000000000000000000000000007F
:103948000000000000000FC0001FE0000030000071
:10395800300007F0001FF0003830003030003070C1
:10396800001FFC000FBC0000000000000000000069
:10397800000000000000000000000000000000003F
:1039880000007800007800001800001800001BE014
:10399800001FF8001C1800180C00180C00180C0068
:1039A800180C00180C001C18007FF8007BE00000C1
:1039B80000000000000000000000000000000000FF
:1039C80000000000000000000000000000000000EF
:1039D80000000000000003EC000FFC001C1C003875
:1039E8000C00300C00300000300000380C001C1CAB
:1039F800000FF80003F000000000000000000000C5
:103A080000000000000000000000000000000000AE
:103A1800000000780000780000180000180007D89F
:103A2800001FF8001838003018003018003018004F
:103A38003018003018001838001FFE0007DE00009C
:103A4800000000000000000000000000000000006E
:103A5800000000000000000000000000000000005E
:103A680000000000000007E0001FF80018180030F0
:103A78000C003FFC003FFC00300000300000180C38
:103A8800001FFC0007F0000000000000000000001C
:103A9800000000000000000000000000000000001E
:103AA800000001FC0003FC000600000600003FF8CF
:103AB800003FF800060000060000060000060000AF
:103AC8000600000600000600003FF0003FF000007E
:103AD80000000000000000000000000000000000DE
:103AE80000000000000000000000000000000000CE
:103AF80000000000000007DE001FFE00183800303C
:103B08001800301800301800301800301800183825
:103B1800001FF80007D8000018000018000038003F
:103B28000FF0000FC00000000000000000000000BF
:103B380000007800007800001800001800001BE062
:103B4800001FF0001C38001818001818001818007A
:103B58001818001818001818007E7E007E7E0000D5
:103B6800000000000000000000000000000000004D
:103B7800000000000000000000000180000180003B
:103B88000000000000001F80001F8000018000016D
:103B98008000018000018000018000018000018018
:103BA800003FFC003FFC0000000000000000000097
:103BB80000000000000000000000000000000000FD
:103BC800000000C00000C0000000000000001FF05E
:103BD800001FF0000030000030000030000030000E
:103BE80000300000300000300000300000300000DD
:103BF80030000030000070001FE0001F800000004F
:103C0800000000000000000000003C00003C000034
:103C18000C00000C00000CF8000CF8000CC0000DA3
:103C280080000F80000F00000F80000DC0000CE026
:103C3800003C7C003C7C000000000000000000000C
:103C4800000000000000000000000000000000006C
:103C580000001F80001F800001800001800001809B
:103C680000018000018000018000018000018000C7
:103C78000180000180000180003FFC003FFC000043
:103C8800000000000000000000000000000000002C
:103C9800000000000000000000000000000000001C
:103CA800000000000000F77800FFFC0039CC00316C
:103CB8008C00318C00318C00318C00318C00318CBF
:103CC80000FDEF00FDEF0000000000000000000014
:103CD80000000000000000000000000000000000DC
:103CE80000000000000000000000000000007BE071
:103CF800007FF0001C380018180018180018180069
:103D08001818001818001818007E7E007E7E000023
:103D1800000000000000000000000000000000009B
:103D2800000000000000000000000000000000008B
:103D380000000000000003C0000FF0001C3800382D
:103D48001C00300C00300C00300C00381C001C38F3
:103D5800000FF00003C00000000000000000000099
:103D6800000000000000000000000000000000004B
:103D780000000000000000000000000000007BE0E0
:103D8800007FF8001C1800180C00180C00180C0014
:103D9800180C00180C001C18001FF8001BE0001875
:103DA80000001800001800007F00007F00000000DD
:103DB80000000000000000000000000000000000FB
:103DC80000000000000007DE001FFE001838003069
:103DD8001800301800301800301800301800183853
:103DE800001FF80007D8000018000018000018008D
:103DF80000FE0000FE0000000000000000000000BF
:103E080000000000000000000000000000003E78F4
:103E1800003EFC0007CC000700000600000600007A
:103E28000600000600000600003FF0003FF000001A
:103E3800000000000000000000000000000000007A
:103E4800000000000000000000000000000000006A
:103E580000000000000007F8000FF800181800180C
:103E680018001F80000FF00000F80018180018381C
:103E7800001FF0001FE0000000000000000000002C
:103E8800000000000000000000000000000000002A
:103E980000000C00000C00000C00000C00003FF0BB
:103EA800003FF0000C00000C00000C00000C0000AB
:103EB8000C00000C00000C1C0007FC0003F00000C4
:103EC80000000000000000000000000000000000EA
:103ED80000000000000000000000000000000000DA
:103EE80000000000000078780078780018180018A2
:103EF8001800181800181800181800181800183892
:103F0800000FFE0007DE00000000000000000000B7
:103F18000000000000000000000000000000000099
:103F280000000000000000000000000000007C3ECF
:103F3800007C3E001818001818000C30000C3000E7
:103F480006600006600007E00003C00003C0000030
:103F58000000000000000000000000000000000059
:103F68000000000000000000000000000000000049
:103F7800000000000000783C00783C003118003355
:103F880098003398001AB0001EF0001EF0001C6064
:103F9800000C60000C600000000000000000000041
:103FA8000000000000000000000000000000000009
:103FB80000000000000000000000000000003E7C3F
:103FC800003E7C000C300006600003C00001800049
:103FD80003C0000660000C30003E7C003E7C000000
:103FE80000000000000000000000000000000000C9
:103FF80000000000000000000000000000000000B9
:104008000000000000007E1F007E1F00180C000C3E
:1040180018000C180006300006300003600003E0AA
:104028000001C00000C00001800001800003000002
:104038003FC0003FC000000000000000000000007A
:1040480000000000000000000000000000001FF851
:10405800001FF80018300018600000C00001800040
:104068000300000618000C18001FF8001FF80000D5
:104078000000000000000000000000000000000038
:104088000000000000000000000000E00001E00067
:104098000180000180000180000180000180000192
:1040A8008000038000070000038000018000018079
:1040B8000001800001800001800001E00000E000B4
:1040C80000000000000000000000000000000000E8
:1040D8000000018000018000018000018000018053
:1040E8000001800001800001800001800001800043
:1040F8000180000180000180000180000180000132
:104108008000018000018000000000000000000025
:104118000000000000000000000007000007800009
:104128000180000180000180000180000180000101
:10413800800001C00000E00001C000018000018093
:104148000001800001800001800007800007000056
:104158000000000000000000000000000000000057
:104168000000000000000000000000000000000047
:10417800000000000E00001F18003BB80031F000DE
:1041880000E0000000000000000000000000000047
:104198000000000000000000000000000000000017
:1041A800000000005175796574204C75752069739D
:0C41B8002074657374696E6721000000BC
:0841C400AD26000831020008DD
:0441CC0009020008DC
:1041D000080000200000000000000000F4020020A1
:1041E0005C030020C4030020000000000000000069
:1041F00000000000000000000000000000000000BF
:1042000000000000000000000000000000000000AE
:10421000000000000000000000000000000000009E
:10422000000000000000000000000000000000008E
:10423000000000000000000000000000000000007E
:10424000000000000000000000000000000000006E
:10425000000000000000000000000000000000005E
:10426000000000000000000000000000000000004E
:10427000000000000000000000000000000000003E
:1042800001000000000000000E33CDAB34126DE6DB
:10429000ECDE05000B000000000000000000000044
:1042A000000000000000000000000000000000000E
:1042B00000000000000000000000000000000000FE
:1042C00000000000000000000000000000000000EE
:1042D00000000000000000000000000000000000DE
:10460000F426000811001800010000000024F40046
:04000005080024D5F6
:00000001FF
